:020000040800F2
:100000006807002041320008BD9F0008BF9F00081C
:10001000C39F0008C79F0008CB9F00080000000096
:10002000000000000000000000000000CF9F00085A
:10003000D19F000800000000D39F0008D59F000852
:100040005B3200085B3200085B320008C7A300087F
:100050005B3200085B320008DDAA0008F3AA000842
:1000600047AB00089BAB00085B3200085B3200081E
:100070005B3200085B3200085B3200085B3200082C
:100080005B3200085B3200085B3200085B3200081C
:100090005B3200085B3200085B3200085B3200080C
:1000A0005B3200085B3200085B3200085B320008FC
:1000B0005B3200085B3200085B3200085B320008EC
:1000C0005B3200085B3200085B3200085B320008DC
:1000D0005B32000855A200085B3200085B32000862
:1000E0005B320008DBA300085B32000800F002F876
:1000F00000F092F80AA090E8000C82448344AAF130
:100100000107DA4501D100F087F8AFF2090EBAE82D
:100110000F0013F0010F18BFFB1A43F0010318473B
:1001200024EC000044EC0000103A24BF78C878C1E9
:10013000FAD8520724BF30C830C144BF04680C60ED
:10014000704700000023002400250026103A28BF35
:1001500078C1FBD8520728BF30C148BF0B60704739
:100160006E290BF0598670290BF0D28766290DF0A5
:10017000EF8165290DF0EC8167290DF0E981612996
:10018000AFF3008003681B0A28BF41F08001692992
:100190000BF0088664290BF0058675290BF00286A2
:1001A0006F290BF05D8778290BF09E87E9290BF00A
:1001B000F586E4290BF0F286F5290BF0EF86EF299E
:1001C0000BF05A87F8290BF09D870368DB0928BFDD
:1001D00041F0800163290BF0648673290BF0698676
:1001E000E3290CF05182F3290CF05682002070476D
:1001F0001FB50DF0A1F90CF0ADFA040000200021AC
:100200000CF098FF401C6060002000210CF07CFF87
:10021000E0601FBD10B510BD0CF06EFA1146FFF77F
:10022000E7FF03F02DF80CF04FFB03B4FFF7F2FFEC
:1002300003BC09F08FFF000000210020674A12680C
:1002400042F48032654B1A6000BF644A126802F4BF
:100250000030491C10B9B1F5A06FF6D15F4A1268A1
:1002600012F4003F01D0012000E00020012842D11B
:100270005B4A126842F01002594B1A601A46126823
:1002800022F003021A601A46126842F002021A6053
:10029000524A5268514B5A601A4652685A601A467E
:1002A000526842F480625A601A46526822F47C1204
:1002B0005A601A46526842F4E8125A601A461268A6
:1002C00042F080721A6000BF444A126812F0007F48
:1002D000FAD0424A526822F00302404B5A601A4652
:1002E000526842F002025A6000BF3C4A526802F073
:1002F0000C02082AF9D1704710B5FFF79DFF10BD19
:1003000010B53648006840F00100344908600846DE
:10031000406834490840314948600846006832491D
:1003200008402E4908600846006820F480200860D4
:100330000846406820F4FE0048604FF41F008860C3
:10034000FFF7DAFF4FF000602849086010BD10B5D4
:10035000002100200022214B5B6803F00C0121B139
:10036000042906D0082928D107E0214B214C23601D
:1003700027E01F4B1F4C236023E0184B5B6803F4FE
:100380007010164B5B6803F48032022303EB90403D
:1003900022B9194B4343174C23600DE00F4B5B68A8
:1003A00013F4003F04D0144B4343124C236003E08A
:1003B0000F4B43430F4C236003E00D4B0D4C236068
:1003C00000BF00BF054B5B68C3F303130B4CE15C3C
:1003D000084B1B68CB40074C236010BD0010024047
:1003E000002002400000FFF8FFFFF6FE08ED00E0ED
:1003F00000127A000000002000093D0004000020E7
:1004000036490143364A1160704770B50021002318
:100410000F22C4784CB3324C246804F4E064C4F571
:10042000E0644FEA1421C1F1040322FA01F2447896
:1004300004FA03F1847804EA020444EA01014FEA71
:100440000111284C0678A155047804F01F054FF0DF
:10045000010404FA05F405784FEA65154FF0E0262B
:1004600006EB8505C5F8004109E0047804F01F0596
:100470000124AC401C4D0678761145F8264070BD2D
:100480001A4A0A4002431A4B1A60704741B1194A8E
:10049000126842EA00024FF0E023C3F8102D07E093
:1004A000144A126822EA00024FF0E023C3F8102D2C
:1004B0007047042808D14FF0E021096941F0040198
:1004C0004FF0E022116107E04FF0E021096921F0CF
:1004D00004014FF0E0221161704700000000FA05AE
:1004E0000CED00E000E400E080E100E080FFFF1F91
:1004F00008ED00E010ED00E010B50446CA48844263
:1005000008D10121042000F024FB0021042000F088
:1005100020FB46E0C548844208D10121082000F0B4
:1005200018FB0021082000F014FB3AE0C048844288
:1005300008D10121102000F00CFB0021102000F058
:1005400008FB2EE0BB48844208D10121202000F0A6
:1005500000FB0021202000F0FCFA22E0B648844293
:1005600008D10121402000F0F4FA0021402000F0E1
:10057000F0FA16E0B148844208D10121802000F051
:10058000E8FA0021802000F0E4FA0AE0AC48844256
:1005900007D10121801500F0DCFA0021A01500F040
:1005A000D8FA10BD10B50121084600F0D2FA00219A
:1005B000012000F0CEFA10BD2DE9F04102460025E1
:1005C0000026002000230024002791F803C00CF02F
:1005D0000F0591F803C01CF0100F03D091F802C072
:1005E0004CEA0505B1F800C01CF0FF0F31D01468CB
:1005F00000202BE04FF0010C0CFA00F3B1F800C022
:100600000CEA03069E4220D183004FF00F0C0CFA37
:1006100003F7BC4305FA03FC4CEA040491F803C059
:10062000BCF1280F06D14FF0010C0CFA00FCC2F807
:1006300014C00AE091F803C0BCF1480F05D14FF097
:10064000010C0CFA00FCC2F810C0401C0828D1D3E1
:100650001460B1F800C0BCF1FF0F34DD5468002015
:100660002EE000F1080C4FF0010808FA0CF3B1F885
:1006700000C00CEA03069E4221D183004FF00F0C0C
:100680000CFA03F7BC4305FA03FC4CEA040491F8A6
:1006900003C0BCF1280F05D100F1080C08FA0CF8D2
:1006A000C2F8148091F803C0BCF1480F07D100F1E3
:1006B000080C4FF0010808FA0CF8C2F81080401C32
:1006C0000828CED35460BDE8F0814FF6FF71018059
:1006D000022181700421C170704702460020936896
:1006E0000B4201D0012000E00020704701468868DD
:1006F00080B2704702460020D3680B4201D001202F
:1007000000E0002070470146C86880B27047016170
:100710007047416170470AB1016100E04161704773
:10072000C16070474FF480320A4382618161826107
:1007300082698269704702460020424B18684FF672
:100740008073184040EA021008433E4B186070471F
:100750003D49C8617047F0B50A46002300240021D6
:10076000002500F00046B6F1004F02D1354EF16988
:1007700001E0344E7168C0F3034583B200F44016C3
:10078000B6F5401F08D121F070612E4E766826F034
:1007900070662C4F7E6012E000F48016B6F5801F64
:1007A00006D1032606FA05F4A14341F0706106E084
:1007B000460D360103FA06F6B14341F0706122B1ED
:1007C000460D360103FA06F6314300F00046B6F155
:1007D000004F02D11B4EF16101E01A4E7160F0BD75
:1007E00030B500228B071C0F0F2303FA04F2154BC0
:1007F00008338C1053F824309343124C08348D1076
:1008000044F8253023468C1053F824308C07240FED
:1008100000FA04F423430B4C08348D1044F82530BF
:1008200030BD0A490860704700080140000C0140D3
:10083000001001400014014000180140001C01405C
:10084000002001400000014000002042DC00204266
:10085000DB48006840F00100D9490860084640685C
:10086000D8490840D649486008460068D64908403B
:10087000D34908600846006820F4802008600846D4
:10088000406820F4FE0048604FF41F008860704705
:10089000CB49096821F48031C94A116011460968C1
:1008A00021F480211160B0F5803F03D0B0F5802F96
:1008B0000ED106E0C249096841F48031C04A116096
:1008C00007E0BF49096841F4A021BD4A116000E07A
:1008D00000BF00BF704710B5014600220023002072
:1008E0004A11012A02D1B64C236806E0022A02D13D
:1008F000B34C236A01E0B24C636A01F01F02012489
:1009000094401C4201D0012000E0002010BD70B5D1
:1009100000240025002600BF3120FFF7DCFF06463B
:10092000641CB4F5A06F01D0002EF5D03120FFF784
:10093000D2FF08B1012500E00025284670BD014620
:1009400000209F4A106820F0F80040EAC1001060C3
:1009500070479E490860704702460020984B5868CF
:1009600020F47C1042EA01031843954B586070470D
:1009700096490866704701460020914A506820F069
:1009800003000843506070478D48406800F00C0039
:100990007047014600208A4A506820F0F000084362
:1009A0005060704701460020854A506820F4E0609E
:1009B00008435060704701460020814A506820F487
:1009C000605040EAC1005060704729B17C4A527AB9
:1009D00002437B4B5A7206E0794A527AC343DBB238
:1009E0001A40774B5A727047794908607047014640
:1009F0000020734A506820F440400843506070471C
:100A00000021744A11706E4A82F82010012802D029
:100A1000042808D103E001216E4A117004E0052189
:100A20006C4A117000E000BF00BF70476A4908605F
:100A300070476349096A0143614A11627047674917
:100A40000860704730B500210022002400235C4D6F
:100A50006D6805F00C0121B1042905D0082923D1C6
:100A600005E05F4D056022E05D4D05601FE0544DDF
:100A70006D6805F47012524D6D6805F480340225DE
:100A800005EB92421CB9574D554305600BE04C4DA8
:100A90006D6815F4003F03D0524D5543056002E0E8
:100AA0004F4D5543056002E04D4D056000BF00BF4E
:100AB000434D6D6805F0F00109094B4D6B5C05680D
:100AC000DD4045603E4D6D6805F4E061090A464D24
:100AD0006B5C4568DD408560394D6D6805F460519B
:100AE000C90A414D6B5C4568DD40C560344D6D6899
:100AF00005F44041890B3D4D6B5CC568B5FBF3F5D2
:100B0000056130BD29B12E4A526902432C4B5A610E
:100B100004E02B4A52698243294B5A61704729B13C
:100B2000274A92690243264B9A6104E0244A92695B
:100B30008243234B9A61704729B1214AD26902430B
:100B40001F4BDA6104E01E4AD26982431C4BDA6112
:100B5000704729B11A4AD2680243194BDA6004E09F
:100B6000174AD2688243164BDA60704729B1144A9B
:100B700012690243124B1A6104E0114A126982435E
:100B80000F4B1A6170471A49086070470F49C864D3
:100B900070470B49C87170470948406A40F080703F
:100BA00007494862704701460020054A92680A4298
:100BB00001D0012000E00020704701498872704791
:100BC000001002400000FFF8FFFFF6FE0000424266
:100BD000D800424220100240800442423C0442427B
:100BE00000127A0000093D001400002024000020BB
:100BF0004004424210B50446FC48844209D1012118
:100C00008803FFF7A6FF00214FF48040FFF7A1FF04
:100C100032E0F748844209D101214804FFF7A6FFDA
:100C200000214FF40030FFF7A1FF25E0F148844296
:100C300009D101218804FFF799FF00214FF480209A
:100C4000FFF794FF18E0EC48844209D10121C80461
:100C5000FFF78CFF00214FF40020FFF787FF0BE028
:100C6000E648844208D101210805FFF77FFF0021F3
:100C70004FF48010FFF77AFF10BD2DE9F04786B0E2
:100C800005460E460024A24600BFA1460027B089B3
:100C900000B100BF2F462C8A4CF6FF700440F0884C
:100CA00004432C82AC894EF6F3100440B08831899D
:100CB0000843718908430443AC81AC8A4FF6FF4076
:100CC0000440B0890443AC8201A8FFF7BBFEC748CB
:100CD000874202D1DDF810A001E0DDF80CA0A88960
:100CE00010F4004F08D00AEBCA0000EB0A1031687C
:100CF0004900B0FBF1F807E00AEBCA0000EB0A106C
:100D000031688900B0FBF1F86420B8FBF0F0040111
:100D10002009642101FB1089A88910F4004F08D034
:100D2000322000EBC900B0FBF1F000F007000443F3
:100D300008E0322000EB09106421B0FBF1F000F074
:100D40000F0004432C8106B0BDE8F0874FF4165124
:100D5000016000218180C18001810C21418100213D
:100D60008181704710B502460020108A4FF2FF03C0
:100D700018400B884C8823438C882343CC8823431A
:100D80001843108210BD0021018041808180C18004
:100D9000704721B1828942F40052828104E0828945
:100DA0004DF6FF731A4082817047F0B50346002468
:100DB000002600250020A1F510676A3F00D100BF82
:100DC0001846C1F3421401F01F06012707FA06F581
:100DD000012C01D10C3004E0022C01D1103000E0D4
:100DE00014301AB107682F43076002E00768AF4369
:100DF0000760F0BD10B51AB1838A0B43838204E00B
:100E0000838ACC43A4B22340838210BD028A4FF66A
:100E1000F0731A400282028A0A4302827047828972
:100E20004FF2FF731A40828182890A4382817047A0
:100E300021B1828942F00202828104E082894FF668
:100E4000FD731A4082817047028A4FF6DF731A40A1
:100E50000282028A0A430282704721B1028A42F466
:100E60008042028204E0028A4BF6FF731A4002823B
:100E70007047C1F308028280704701468888C0F33A
:100E800008007047818941F0010181817047028B20
:100E9000D2B20283028B42EA012202837047028BA4
:100EA00002F47F420283028B0A430283704721B11E
:100EB000828A42F02002828204E0828A4FF6DF7347
:100EC0001A408282704721B1828A42F010028282E7
:100ED00004E0828A4FF6EF731A408282704721B194
:100EE000828A42F00802828204E0828A4FF6F77317
:100EF0001A408282704721B1828942F40042828185
:100F000003E08289C2F30E028281704721B1828A96
:100F100042F40062828204E0828A4FF2FF731A4038
:100F200082827047828A4FF6FB731A408282828ADD
:100F30000A438282704721B1828A42F00202828291
:100F400004E0828A4FF6FD731A408282704702469F
:100F50000020B1F5007F00D100BF13880B4201D003
:100F6000012000E00020704701F40072B2F5007F1C
:100F700000D100BFCA430280704770B5024600240A
:100F8000002300250020A1F510666A3E00D100BFB5
:100F9000C1F3421501F01F03012606FA03F3012DE8
:100FA00002D19689334006E0022D02D1168A3340E1
:100FB00001E0968A33400C12012606FA04F41688E2
:100FC000344013B10CB1012000E0002070BD10B519
:100FD00000220023A1F510646A3C00D100BF0A1270
:100FE00001249440A3B2DC43048010BD00380140CA
:100FF0000044004000480040004C004000500040C9
:1010000010B50120FFF7BFFD0020FFF7BCFD10BDAC
:1010100024490860704724490860704723490860E4
:10102000704701460020224A10884FF67F4200EAAE
:10103000020040EA01001F4AA2F82C0C704701464A
:1010400000201B4A10884FF6807200EA020040EA36
:101050000100184AA2F82C0C70470022144A2C3ABE
:1010600002441160704701460022114A2C3A0A449A
:101070001088704710480068C0B270470F48008859
:1010800040F001000B49A1F8340C70470C4800688F
:10109000C0B270470948008840F002000549A1F835
:1010A000340C704704860D4200860D4288860D423E
:1010B0002C6C004000600040A0860D42346C004063
:1010C000A4860D4210B501210807FFF74FFD00214E
:1010D0004FF08050FFF74AFD10BD2C490862704761
:1010E0002A490861704701460020294A106820F00B
:1010F000E00008431060704726490860704710B54B
:1011000002460020224B186820F0030010431860AC
:10111000214B1B6843F004034FF0E024C4F8103D5A
:10112000012901D130BF00E020BF1B4B1B6823F019
:1011300004034FF0E024C4F8103D10BD14480068CB
:1011400040F00400124908600846006840F00200C0
:1011500008601148006840F004004FF0E021C1F839
:10116000100D00BF00BF30BF704701460020084A85
:1011700052680A4201D0012000E000207047044973
:10118000096841EA8001024A1160704700000E427E
:1011900000700040A0000E4210ED00E039B1554A49
:1011A000128842EA0002544BA3F8002809E0514A91
:1011B00012886FEA00039BB202EA03024E4BA3F8C7
:1011C000002870474D48008840F010004A49A1F8B7
:1011D00004087047494800884FF6EF7100EA0100A3
:1011E0004549A1F804087047002145480188424854
:1011F000B0F8180841EA0040704700B50246FFF712
:10120000E1FF100C3F4908803B49A1F81C28FFF77B
:10121000E1FF00BD00B50246FFF7D4FFC2F3034073
:10122000394908803449A1F80C28FFF7D3FF00BDE5
:1012300000B50246FFF7C6FF100C344908802E495E
:10124000A1F82428FFF7C6FF00BD00203049098817
:101250004FEA01714FEA11302749B1F8141841EAF9
:101260000000704700BF2548008810F0200FFAD01A
:101270007047224800884FF6F77100EA01001E49C6
:10128000A1F8040800BF1D48008810F0080FFAD02C
:10129000704701460020194A12880A4201D00120F5
:1012A00000E000207047154909886FEA000292B2F9
:1012B00001EA0201104AA2F8041870470146002012
:1012C0000E4A128802EA0102D0B20B4AB2F8002894
:1012D0000A4202D008B1012000E00020704707490F
:1012E00009886FEA000292B201EA0201024AA2F8FA
:1012F00004187047002800400020004004280040E7
:101300001C280040182800400828004020280040E1
:101310001028004001460020FF4A106800F0380005
:10132000084310607047FC49096821F00801FA4A37
:10133000116011460968014311607047F649096858
:1013400021F01001F44A116011460968014311604F
:101350007047F248F0494860F14848607047EF48EC
:10136000ED494860EE4848607047EB48006940F03E
:101370008000E94908617047E748006940F0800053
:10138000E549086170470420E349C96801F001019B
:10139000012901D101200EE0DF49C96811F0040FD5
:1013A00001D0022007E0DC49C96811F0100F01D01C
:1013B000032000E00420704700B502460423FFF735
:1013C000E2FF034603E0FFF7DEFF0346521E012B58
:1013D00001D1002AF7D102B90523184600BD30B566
:1013E000044604254FF43020FFF7E6FF0546042DA0
:1013F00017D1C948006940F00200C7490861084692
:101400004461006940F0400008614FF43020FFF76C
:10141000D3FF0546C048006941F6FD710840BE494A
:101420000861284630BD10B504244FF43020FFF782
:10143000C3FF0446042C16D1B748006940F00400ED
:10144000B54908610846006940F0400008614FF462
:101450003020FFF7B1FF0446AF48006941F6FB7149
:101460000840AD490861204610BD00B5024604237E
:10147000FFF789FF034603E0FFF785FF0346521E8F
:10148000012B01D1002AF7D102B90523184600BD6E
:1014900010B504244FF43020FFF7E7FF0446042C76
:1014A00016D19D48006940F004009B490861084638
:1014B000006940F0400008614FF43020FFF7D5FF8D
:1014C00004469548006941F6FB710840924908615D
:1014D000204610BD00209049C96911F0020F01D0CB
:1014E000012000E00020704730B5A5250424FFF757
:1014F000F1FF00B100254FF43020FFF75DFF0446F7
:10150000042C3BD18548844988608548886008461A
:10151000006940F0200008610846006940F0400082
:1015200008614FF43020FFF747FF0446042C1CD11C
:101530007948006941F6DF7108407749086108463B
:10154000006940F010000861764805804FF40050B3
:10155000FFF732FF0446052C10D06F48006941F6B2
:10156000EF7108406C49086108E0052C06D06A4814
:10157000006941F6EF71084067490861204630BDB7
:10158000F0B504460D4604260027F002FFF714FFCD
:101590000646042E22D16048006940F001005E49F1
:1015A00008612580F002FFF707FF0646042E0ED1E2
:1015B000A71C280C3880F002FFF7FEFE06465648AE
:1015C000006941F6FE7108405349086106E052483F
:1015D000006941F6FE7108404F4908613046F0BD90
:1015E00070B504460D460426F002FFF7E5FE0646F8
:1015F000042E11D14848006940F0010046490861B5
:101600002580F002FFF7D8FE06464348006941F600
:10161000FE71084040490861304670BD70B505460E
:101620000E460424E002FFF7C7FE0446042C17D13F
:101630003A48394988603A4888600846006940F06D
:10164000100008612E80E002FFF7B6FE0446052C6C
:1016500006D03148006941F6EF7108402E49086113
:10166000204670BD2DE9F04304464FF6FF7637461D
:10167000B046B1460425E443E6B2C4F30727C4F3F9
:1016800007484FEA1469E802FFF796FE0546042D65
:101690003ED1224820498860214888600846006978
:1016A00040F010000861FF2E06D01F4806804FF45E
:1016B0000050FFF781FE0546042D08D1FF2F06D00C
:1016C0001A4807804FF40050FFF776FE0546042DB8
:1016D00009D1B8F1FF0F06D01548A0F80C88E80230
:1016E000FFF76AFE0546042D09D1B9F1FF0F06D0B8
:1016F0000F48A0F80E98E802FFF75EFE0546052D9C
:1017000006D00548006941F6EF71084002490861BA
:101710002846BDE8F0830000002002402301674511
:10172000AB89EFCD00F8FF1F08F8FF1F0AF8FF1F75
:1017300000F0FF1F30B5054604244FF43020FFF7BA
:101740003BFE0446042C41D15F48604988606048F4
:1017500088600846006940F020000861084600697A
:1017600040F0400008614FF43020FFF725FE0446AA
:10177000042C22D15548006941F6DF7108405349D5
:1017800008610846006940F0100008611DB10020A2
:101790005049088002E0A5204E4908804FF43020CF
:1017A000FFF70AFE0446052C10D04848006941F6B0
:1017B000EF7108404549086108E0052C06D0434810
:1017C000006941F6DF71084040490861204630BD9C
:1017D000F0B505460E46174604243B483B49886051
:1017E0003B488860E002FFF7E7FD0446042C19D16E
:1017F0003648006940F010003449086147F0F800AD
:1018000030432843344908804FF40050FFF7D4FD9B
:101810000446052C06D02D48006941F6EF710840BA
:101820002A4908612046F0BD2848C06980087047F1
:101830002648006A704700202449096811F0200FEB
:1018400001D0012000E00020704729B11F4A126931
:1018500002431E4B1A6104E01C4A126982431B4B6F
:101860001A61704701460020012908D1174AD26940
:1018700012F0010F01D0012008E0002006E0134A19
:10188000D2680A4201D0012000E0002070470F49D1
:10189000C860704704200D49C96801F001010129A1
:1018A00001D101200EE00949C96811F0040F01D0EF
:1018B000022007E00549C96811F0100F01D003208C
:1018C00000E004207047000023016745002002402B
:1018D000AB89EFCD00F8FF1F02F8FF1F10B50446DB
:1018E000F648844209D101214805FFF73FF900215C
:1018F0004FF40010FFF73AF908E001218805FFF7DF
:1019000035F900214FF48000FFF730F910BD2DE9C3
:10191000F04385B004460D460026B1460427DFF8A3
:10192000A083A6884FF6C0710E406846FFF78AF87C
:10193000DDF80880E348B8FBF0F01FFA80F946EACA
:101940000906A68020884FF6FE71084020800026F8
:10195000DD49286888420CD828684000B8FBF0F0C0
:1019600087B2042F00DA04273E4309F101002084E6
:1019700027E0E888A0F53F41FF3906D1286800EB51
:101980004000B8FBF0F087B209E0286800EBC00126
:1019900001EB0010B8FBF0F087B247F48047380540
:1019A000000D01D147F0010747F4004006434FF412
:1019B000967009FB00F04FF47A7190FBF1F0401C37
:1019C0002084A683208840F00100208026884FF6DE
:1019D000F5310E40A8886989084306432680A88906
:1019E00029890843208105B0BDE8F08341F28831A0
:1019F0000160002181804BF6FF71C18000210181CF
:101A000041814FF480418181704721B1028842F0C9
:101A10000102028004E002884FF6FE731A40028041
:101A2000704721B1828842F40062828004E082889B
:101A30004FF2FF731A408280704721B1828842F4CE
:101A40008052828004E082884EF6FF731A408280C2
:101A5000704721B1028842F48072028004E002885B
:101A60004FF6FF631A400280704721B1028842F4AA
:101A70000072028004E002884FF6FF531A40028091
:101A8000704721B1028842F48062028004E002883B
:101A90004FF6FF331A40028070470A4600218189C1
:101AA0004FF60173194002F0FE031943818170471C
:101AB00021B1828942F00102828104E082894FF6DD
:101AC000FE731A408281704721B1028842F04002C1
:101AD000028004E002884FF6BF731A40028070470C
:101AE00010B51AB183880B43838004E08388CC430C
:101AF000A4B22340838010BD018270470146088A4A
:101B0000C0B2704712B141F0010102E04FF6FE731E
:101B10001940018270470246002313460B4418887F
:101B2000704721B1028842F40042028003E002883B
:101B3000C2F30E0202807047B1F5006F04D1028833
:101B400042F40062028004E002884FF2FF731A4000
:101B500002807047B1F5005F04D1028842F4005260
:101B6000028004E002884DF6FF731A40028070473D
:101B700021B1028842F48052028004E002884EF6CD
:101B8000FF731A4002807047B1F5006F04D10288DC
:101B900042F40062028004E002884FF2FF731A40B0
:101BA0000280704721B1028842F02002028004E0E6
:101BB00002884FF6DF731A40028070470146088B97
:101BC0000012704721B1028842F01002028004E046
:101BD00002884FF6EF731A400280704721B90288DD
:101BE00042F08002028004E002884FF67F731A40C0
:101BF00002807047B1F5804F05D0828B4BF6FF73A2
:101C00001A40828303E0828B42F4804282837047D1
:101C100070B502460024002500230020958A138B0E
:101C20001B0445EA030626F07F4404EA01068E42BF
:101C300001D1012000E0002070BD10B50146002058
:101C4000002300228B8A0A8B120443EA020424F048
:101C50007F4010BD30B503460020002400221A4604
:101C60000C0F21F07F410CB1143201E0090C183245
:101C700015680D4201D0012000E0002030BD002297
:101C800021F07F42D3438382704730B50246002063
:101C90000023948801F0E06504EA154321F07F41B8
:101CA000948A0C4202D00BB1012000E0002030BD2C
:101CB000002221F07F42D3438382704700540040CA
:101CC00000127A0040420F00A08601000020474920
:101CD00008604749C1F804044649086001F104015D
:101CE0000860454845490860704700213F498279AE
:101CF000DAB33F4AD2F8002403689A433C4BC3F856
:101D000000241A46D2F8042403689A4301F104031C
:101D10001A60027911440A68036842EA03020A6001
:101D2000334AD2F80824036822EA0302304BC3F88E
:101D300008241A46D2F80C24036822EA0302304B26
:101D40001A604279102A11D1294AD2F8082403686E
:101D50001A43274BC3F808241A46D2F80C24036808
:101D60001A43234BC3F80C240EE007E01F494279C5
:101D700011440A6803681A430A6005E002791144B5
:101D80000A6803689A430A60704700210160017184
:101D90000C2141710021817170471A49096841EA9B
:101DA0000001134AC2F81014704701460020134A7C
:101DB00012680A4201D0012000E0002070470F495C
:101DC00008607047014600200022084B1B6803EAA8
:101DD0000102074BD3F814340B4202D00AB10120A0
:101DE00000E000207047054908607047000401408A
:101DF0000000014008040140FFFF0F0014040140EF
:101E00000C0401401004014001684FF6FE721140BD
:101E100001600021016041608160C16087498842A2
:101E200008D186490839496841F00F01834A083AC8
:101E3000516088E081491431884208D17F490839CE
:101E4000496841F0F0017D4A083A51607BE07B49E6
:101E50002831884208D179490839496841F47061CC
:101E6000764A083A51606EE074493C31884208D1A4
:101E700072490839496841F47041704A083A516022
:101E800061E06E495031884208D16C49083949688F
:101E900041F47021694A083A516054E0674964315D
:101EA000884208D165490839496841F47001634A9C
:101EB000083A516047E061497831884208D15F496A
:101EC0000839496841F070615C4A083A51603AE06B
:101ED0005B49884208D1A0F10401096841F00F0173
:101EE000584AC2F804142EE055491431884207D1EB
:101EF0005549096841F0F001524AC2F8041422E041
:101F00004F492831884207D14F49096841F470612F
:101F10004C4AC2F8041416E049493C31884207D1C2
:101F20004949096841F47041464AC2F804140AE07C
:101F300043495031884206D14349096841F4702130
:101F4000404AC2F80414704710B50022026847F6F0
:101F5000F0739A430C6A8B6823430C6923434C69E2
:101F600023438C692343CC6923434C6A23438C6A03
:101F700023431A430260CB6843600B6883604B685D
:101F8000C36010BD0021016041608160C1600161DA
:101F900041618161C161016241628162704721B129
:101FA000026842F00102026004E002684FF6FE732C
:101FB0001A40026070471AB103680B43036002E0E5
:101FC00003688B430360704741607047014648686F
:101FD00080B2704701460020002211F0805F02D0DD
:101FE0001A4B1A6801E0174B1A680A4201D0012007
:101FF00000E00020704710F0805F02D012490860B6
:1020000001E010494860704701460020002211F0AD
:10201000805F02D00D4B1A6801E00A4B1A680A4231
:1020200001D0012000E00020704710F0805F02D056
:102030000549086001E00349486070470800024014
:102040000804024000000240040402400004024070
:1020500010B50446F848844208D101214015FEF726
:1020600078FD00216015FEF774FD17E0F348844207
:1020700008D101210015FEF76CFD00212015FEF7A7
:1020800068FD0BE0EE48844208D10121C803FEF749
:1020900060FD00214FF40040FEF75BFD10BD30B540
:1020A0000246002000235068E64C20400D790C6861
:1020B00044EA0524204350609068E34C2040D1E975
:1020C00002542C434D7944EA450420439060D06A81
:1020D00020F470000C7C641EE4B2234340EA0350F9
:1020E000D06230BD00210160017141718160C16029
:1020F00001210174704721B1826842F001028260BF
:1021000003E0826822F001028260704721B1826898
:1021100042F48072826003E0826822F480728260FE
:10212000704710B50023CBB21AB144681C43446019
:1021300002E044689C43446010BD816841F008019E
:1021400081607047014600208A6812F0080F01D0B4
:10215000012000E000207047816841F004018160A7
:102160007047014600208A6812F0040F01D0012058
:1021700000E00020704721B1826842F4A002826032
:1021800003E0826822F4A0028260704701460020CA
:102190008A6812F4800F01D0012000E0002070470F
:1021A00010B50A4600210023416821F46041531E06
:1021B00041EA4331416010BD21B1426842F40062FE
:1021C000426003E0426822F4006242607047F0B56A
:1021D00004460D4600200021092D11DDE068A5F11F
:1021E0000A0606EB4607072606FA07F18843A5F11B
:1021F0000A0606EB460603FA06F10843E0600CE027
:10220000206905EB4507072606FA07F1884305EB29
:10221000450603FA06F108432061072A0FDA606BCE
:10222000561E06EB86071F2606FA07F18843561E40
:1022300006EB860605FA06F10843606322E00D2AE4
:102240000FDA206BD61F06EB86071F2606FA07F16A
:102250008843D61F06EB860605FA06F1084320637D
:1022600010E0E06AA2F10D0606EB86071F2606FACB
:1022700007F18843A2F10D0606EB860605FA06F182
:102280000843E062F0BD21B1826842F480128260AE
:1022900003E0826822F48012826070470146C86CB5
:1022A00080B2704769480068704721B1426842F4C3
:1022B0008062426003E0426822F4806242607047BC
:1022C00021B1426842F48052426003E0426822F445
:1022D0008052426070470A460021816821F4E04143
:1022E00011438160704721B1826842F400428260EC
:1022F00003E0826822F400428260704721B1826864
:1023000042F40212826003E0826822F402128260C8
:102310007047014600208A6812F4001F01D0012096
:1023200000E000207047F0B504461546002000226A
:102330000026092911DDE068A1F10A0707EB470C27
:10234000072707FA0CF29043A1F10A0707EB4707AA
:1023500003FA07F21043E0600CE0206901EB410C46
:10236000072707FA0CF2904301EB410703FA07F243
:1023700010432061A06BC0F30156EF1C06F1010C65
:10238000A7EB0C0707EB870C1F2707FA0CF290430B
:10239000EF1C06F1010CA7EB0C0707EB870701FA0E
:1023A00007F21043A063F0BD10B50A4600210023D8
:1023B000816B21F44011531E41EA0351816310BD2A
:1023C00010B5002303460B441A6010BD02460023DB
:1023D000134601F128000344186880B270470A468A
:1023E000002141681A4B1940114341607047416216
:1023F000826270470A460021416821F01F011143A3
:102400004160704738B11349096841F40001124A2C
:10241000C2F8081406E00F49096821F400010E4AC9
:10242000C2F8081470470246002013680B4201D01E
:10243000012000E0002070470024014000280140F6
:10244000003C0140FFFEF0FFFDF7F1FF4C2401408E
:10245000FFFD3FFF0824014000200140CA43026005
:10246000704770B502460020002300240B12556807
:10247000CEB205EA060415681D4202D00CB1012057
:1024800000E0002070BD00220A12D34303607047B1
:1024900010B50446FF48844208D10121C014FEF75C
:1024A00058FB0021E014FEF754FBC4E0B4F1804F68
:1024B00008D101210846FEF759FB00210120FEF753
:1024C00055FBB8E0F448844208D101210220FEF710
:1024D0004DFB00210220FEF749FBACE0EF488442AF
:1024E00008D101210420FEF741FB00210420FEF762
:1024F0003DFBA0E0EA48844208D101210820FEF714
:1025000035FB00210820FEF731FB94E0E5488442CA
:1025100008D101211020FEF729FB00211020FEF731
:1025200025FB88E0E048844208D101212020FEF705
:102530001DFB00212020FEF719FB7CE0DB488442D4
:1025400008D101214014FEF704FB00216014FEF7BE
:1025500000FB70E0D648844209D10121C804FEF78F
:10256000F8FA00214FF40020FEF7F3FA63E0D148B7
:10257000844209D101210805FEF7EBFA00214FF44E
:102580008010FEF7E6FA56E0CB48844209D10121DB
:102590004805FEF7DEFA00214FF40010FEF7D9FAE5
:1025A00049E0C648844208D101214020FEF7DEFA06
:1025B00000214020FEF7DAFA3DE0C148844208D10C
:1025C00001218020FEF7D2FA00218020FEF7CEFA0A
:1025D00031E0BC48844208D101218015FEF7C6FADB
:1025E0000021A015FEF7C2FA25E0B748844209D1C0
:1025F00001210804FEF7ADFA00214FF48030FEF708
:10260000A8FA18E0B148844209D101214804FEF734
:10261000A0FA00214FF40030FEF79BFA0BE0AC4823
:10262000844208D101218804FEF793FA00214FF477
:102630008020FEF78EFA10BD00220288954B98424A
:102640000ED09A4B98420BD0B0F1804F08D0924BED
:10265000984205D0914B984202D0914B984204D1B8
:102660004FF68F731A404B881A438E4B984207D00F
:102670008D4B984204D04FF6FF431A40CB881A4343
:1026800002808B8883850B880385824B98420BD010
:10269000864B984208D08C4B984205D08B4B984281
:1026A00002D08B4B984201D10B7A0386012383829F
:1026B000704770B5002400220023058C4FF6FE768B
:1026C00035400584028C8388048B4FF68F752C402F
:1026D000B51E2C400D882C43751E2A400D892A43B7
:1026E0004D882A436B4DA8420BD0704DA84208D0AC
:1026F000754DA84205D0754DA84202D0744DA84230
:1027000013D14FF6F7752A404D892A434FF6FB75D2
:102710002A408D882A434FF6FF652B404FF6FF5520
:102720002B408D892B43CD892B4383800483CD8817
:102730008586028470BD70B5002400220023058CBC
:102740004FF6EF7635400584028C8388048B48F67B
:10275000FF752C404FF6FF452C400D882D0644EAAE
:1027600015444FF6DF752A400D892D0542EA1542C2
:102770004D882D0542EA1542464DA84202D04B4DE8
:10278000A8421BD14FF67F752A404D892D0542EA9C
:1027900015424FF6BF752A408D882D0542EA154235
:1027A0004FF6FF352B404FF2FF752B408D89AD045E
:1027B00043EA1543CD89AD0443EA1543838004837E
:1027C000CD880587028470BD70B5002400220023E7
:1027D000058C4FF6FF6635400584028C8388848B18
:1027E0004FF68F752C404FF6FC752C400D882C430E
:1027F0004FF6FF552A400D892D0642EA15424D88B5
:102800002D0642EA1542234DA84202D0274DA84288
:102810001BD14FF2FF752A404D892D0642EA154221
:102820004FF6FF352A408D882D0642EA15424EF6B6
:10283000FF752B404DF6FF752B408D892D0543EA22
:102840001543CD892D0543EA154383808483CD88C4
:102850008587028470BD70B5002200230024058C9A
:102860004EF6FF7635400584038C8488828B48F6CB
:10287000FF752A404FF6FF452A400D882D0642EA93
:1028800015424DF6FF752B400D892D0743EA154380
:102890004D881FE0002C014000040040000800406B
:1028A000000C0040001000400014004000340140C3
:1028B000004C01400050014000540140001800400D
:1028C000001C004000200040004001400044014046
:1028D000004801402D0743EA1543F94DA84202D0B4
:1028E000F84DA84206D14BF6FF752C408D89AD05F9
:1028F00044EA154484808283CD88A0F84050038444
:1029000070BD828B4FF2FF331A408283828B0B069D
:1029100042EA134282837047F0B50C461546002206
:1029200000210026078C4EF6FF7C07EA0C0707847F
:10293000828B018C27073E0C40F6FF473A402F065A
:1029400042EA17421F0742EA1742DD4FB8420ED053
:10295000DC4FB8420BD0B0F1804F08D0DA4FB8420C
:1029600005D0DA4FB84202D0D94FB84206D14DF661
:10297000FF77394046F48057394305E047F6FF5763
:10298000394044F48057394382830184F0BD828BFF
:102990004FF6F3731A408283828B0A438283704717
:1029A000F0B50C461546002200210026078C4FF694
:1029B000FF6C07EA0C070784828B018C27063E0C0C
:1029C0004FF60C773A401F0545EA17473A43BC4F8C
:1029D000B8420ED0BB4FB8420BD0B0F1804F08D0F8
:1029E000B94FB84205D0B94FB84202D0B84FB8423B
:1029F00006D14FF6FF57394046F48077394305E05A
:102A00004FF2FF57394044F4807739438283018481
:102A1000F0BD028B4FF2FF331A400283028B0B068C
:102A200042EA134202837047F0B50C461546002275
:102A300000210026078C4FF6EF7C07EA0C0707847D
:102A4000028B018C27053E0C40F6FF473A401F07DA
:102A500042EA17422F0642EA1742994FB8420ED077
:102A6000984FB8420BD0B0F1804F08D0964FB84283
:102A700005D0964FB84202D0954FB84206D14FF6D6
:102A8000DF77394046F01007394305E04FF65F77AE
:102A9000394044F01007394302830184F0BD028BB2
:102AA0004FF6F3731A400283028B0A430283704786
:102AB000F0B50C46154600220021068C4FF6FE7735
:102AC0003E400684028B018C4FF60C7632401E0588
:102AD00045EA164632437A4EB0420ED0794EB042A5
:102AE0000BD0B0F1804F08D0774EB04205D0774E72
:102AF000B04202D0764EB04206D14FF6FD7631405C
:102B000044F00106314305E04FF6F576314044F0DC
:102B10000106314302830184F0BD70B505460C46C1
:102B2000674885420ED0674885420BD0B5F1804F8B
:102B300008D06548854205D06448854202D0644883
:102B4000854200D100E000BF208850B92389A288C7
:102B500061882846FFF7ACFFE1882846FFF79FFF12
:102B600025E0208804280AD12389A2886188284684
:102B7000FFF75AFFE1882846FFF74BFF17E0208850
:102B800008280AD12389A28861882846FFF708FF10
:102B9000E1882846FFF7FBFE09E02389A2886188C7
:102BA0002846FFF7B9FEE1882846FFF7AAFE70BD68
:102BB0002DE9F04105460C4600260127608808B93A
:102BC000022600E00026A088012801D1022700E0AB
:102BD00001272088A0B92389A28861882846FFF7A9
:102BE00067FFE1882846FFF75AFF23893A463146B6
:102BF0002846FFF719FFE1882846FFF70AFF13E090
:102C00002389A28861882846FFF70EFFE1882846BD
:102C1000FFF7FFFE23893A4631462846FFF748FF73
:102C2000E1882846FFF73BFFBDE8F0810A884B8822
:102C30001A438B881A43CB881A430B891A434B8952
:102C40001A438B891A43A0F8442070474FF6FF714E
:102C5000818000210180C180418001727047002184
:102C6000018041808180C180018141818181C18158
:102C70007047002101804180012181800021C180B5
:102C8000018170470021018041808180C1800181E4
:102C900041818181704721B1028842F001020280A6
:102CA00004E002884FF6FE731A400280704789B133
:102CB000B0F8442042F40042A0F8442010E00000A4
:102CC000002C014000340140000400400008004096
:102CD000000C0040B0F84420C2F30E02A0F84420DB
:102CE000704710B51AB183890B43838104E083894F
:102CF000CC43A4B22340838110BD8182704741EA56
:102D00000203A0F84830704710B51AB183890B430D
:102D1000838104E08389CC43A4B22340838110BD26
:102D200001894FF6F8721140018170470A4600216F
:102D300001894FF68F73194011430181704730B5F7
:102D400004460D4629462046FFF7F0FF208940F053
:102D50000700208130BD2DE9F04104460D4616469E
:102D60001F46602D06D13B46012231462046FFF723
:102D70005BFE05E03B46012231462046FFF798FE08
:102D800029462046FFF7D2FF208940F00700208126
:102D9000BDE8F08130B50C4600210189C9B21D069D
:102DA00042EA154525432943018130BD2DE9F04113
:102DB00005460E4617469846002443463A46314695
:102DC0002846FFF7E7FF2C894FF6F8710C4044F0D6
:102DD00007044FF68F710C4044F070042C81BDE85D
:102DE000F081F0B504460D4616461F463B46324676
:102DF00029462046FFF7CEFF208940F480402081FD
:102E0000F0BD0185828270470A46002101884FF695
:102E10008F731940114301807047F0B50C46154679
:102E20001E460021002200230189028B038C4FF6ED
:102E3000F877394021434FF6FC473A4040F20117FA
:102E40003A434FF6DD773B40370545EA17473B43AA
:102E5000018102830384F0BD0A460021018B4FF6F5
:102E60008F7319401143018370470A460021018B7B
:102E700048F6FF731940130641EA13410183704776
:102E80000A460021818B4FF68F73194011438183CD
:102E900070470A460021818B48F6FF7319401306DC
:102EA00041EA13418183704721B1028842F08002D8
:102EB000028004E002884FF67F731A400280704758
:102EC00021B1828842F00402828004E082884FF6B9
:102ED000FB731A408280704721B1828842F0080259
:102EE000828004E082884FF6F7731A408280704730
:102EF00021B1828842F00102828004E082884FF68C
:102F0000FE731A40828070470A460021018B4FF6FB
:102F1000F77319401143018370470A460021018B62
:102F20004FF2FF731940130641EA134101837047C2
:102F30000A460021818B4FF6F773194011438183B4
:102F400070470A460021818B4FF2FF731940130628
:102F500041EA1341818370470A460021018B4FF6F5
:102F6000FB7319401143018370470A460021018B0E
:102F70004FF6FF331940130641EA134101837047AE
:102F80000A460021818B4FF6FB7319401143818360
:102F900070470A460021818B4FF6FF331940130614
:102FA00041EA1341818370470A460021018B4FF6A5
:102FB0007F7319401143018370470A460021018B3A
:102FC000C1F30E01130641EA1341018370470A461B
:102FD0000021818B4FF67F73194011438183704725
:102FE0000A460021818BC1F30E01130641EA134109
:102FF000818370470A460021018C4FF6FD7319400A
:103000001143018470470A460021018C4FF6F77383
:1030100019401143018470470A460021018C4FF684
:10302000DF731940130541EA1341018470470A46D2
:103030000021018C4FF67F731940130541EA1341BB
:10304000018470470A460021018C4FF6FF53194056
:10305000130641EA1341018470470A460021018C9E
:103060004FF2FF731940130641EA13410184704780
:103070000A460021018C4DF6FF731940130741EAFF
:1030800013410184704730B5002301248C40A3B262
:10309000048CDD43ADB22C400484048C02FA01F5AB
:1030A000ADB22C43048430BD30B5002304248C40E1
:1030B000A3B2048CDD43ADB22C400484048C02FA2C
:1030C00001F5ADB22C43048430BD70B50346002039
:1030D00000241846183001258D40ACB21D8CE64303
:1030E000B6B235401D8409B1082909D100EB610051
:1030F000056825F0700505600568154305600CE05E
:103100000D1FADB200EB6500056825F4E0450560D4
:103110000568160645EA1645056070BD21B10288AE
:1031200042F00202028004E002884FF6FD731A406A
:103130000280704721B1028842F00402028004E05C
:1031400002884FF6FB731A400280704721B18288D3
:1031500042F08002828004E082884FF67F731A403A
:103160008280704702884FF6F7731A400280028807
:103170000A430280704782884FF68F731A4082801C
:1031800082880A438280704702894FF6F8731A409A
:10319000028102890A430281704702894FF67F73D8
:1031A0001A40028102890A43028170478184704774
:1031B0008185704781867047018770478187704796
:1031C000A0F84010704702884FF6FF431A40028073
:1031D00002880A43028070470146888E7047014684
:1031E000088F70470146888F70470146B1F840004C
:1031F00070470146888C70470146088D704702462B
:103200000020138A0B4201D0012000E0002070470B
:10321000CA430282704730B50246002000230024D2
:10322000158A05EA0103958905EA010413B10CB179
:10323000012000E0002030BDCA4302827047000038
:103240000948804709480047FEE7FEE7FEE7FEE73A
:10325000FEE7FEE7FEE7FEE7FEE7FEE70448054976
:10326000054A064B7047000001030008ED00000806
:103270006801002068070020680300206803002020
:10328000DAB0582127A808F028FD002017901890E0
:1032900015901690139014904FF4FA7006F0B1FE4A
:1032A00006F0EEFE07F0FFF907F0DCFD962007F0D0
:1032B000E1FD08F05FF907F067F807F019F807F08B
:1032C0005BFB08F0B7F907F0FDFC08F077FB012085
:1032D000599056905490539000204F9001204E905A
:1032E00000204D900120429000202290012020904B
:1032F00000201B9001201990002012901190109036
:103300000F9001200D900020069005900120049060
:1033100000200390FF4806F01AFFA0F57E41FE3919
:103320007DD04FF6FE60ADF89C0055203D901520F5
:103330002690002025902320249040F214502390C2
:103340000020219008201F9000201E9015201D9025
:1033500000201C901A90012044900FE0182117AA19
:1033600044981154192115AA449811540A2113AAFA
:10337000449811544498401C80B2449044980628C4
:10338000ECDB00200E90012044900FE007210BAAF7
:10339000449811540C2109AA44981154192107AAE0
:1033A000449811544498401C80B244904498062894
:1033B000ECDB3D98ADF89E002698ADF8A00025986E
:1033C000ADF8A2002498ADF8A4002398ADF8A600AB
:1033D0002198ADF8A8001F98ADF8AA001E98ADF886
:1033E000AC001D98ADF8AE001C98ADF8B0001A986E
:1033F000ADF8B2000120449018E017A94498095C88
:103400000B3027AA22F8101015A94498095C103037
:1034100022F8101013A94498095C153000E02EE042
:1034200022F810104498401C80B24490449806281A
:10343000E3DB0E98ADF8D2000120449016E00BA912
:103440004498095C1B3027AA22F8101009A9449857
:10345000095C203022F8101007A94498095C253037
:1034600022F810104498401C80B2449044980628DA
:10347000E5DB2B2227A9A74806F049FEA2E0A548D4
:10348000801C06F064FEC0B23D90A248001D06F00C
:103490005EFEC0B226909F48801D06F058FEC0B266
:1034A00025909C48083006F052FEC0B224909948FE
:1034B0000A3006F04CFE239096480C3006F047FE8A
:1034C000C0B2219093480E3006F041FEC0B21F906A
:1034D0009048103006F03BFEC0B21E908D4812306E
:1034E00006F035FEC0B21D908A48143006F02FFE5B
:1034F000C0B21C908748163006F029FEC0B21A9060
:103500000120449027E044980B30824901EB4000B1
:10351000029006F01CFEC1B217AA449811544498B8
:1035200010307C4901EB4000029006F010FEC1B261
:1035300015AA4498115444981530764901EB40007F
:10354000029006F004FEC1B213AA449811544498A4
:10355000401C80B2449044980628D4DB6D48363035
:1035600006F0F5FDC0B20E900120449027E044988B
:103570001B30684901EB4000029006F0E8FDC1B243
:103580000BAA4498115444982030624901EB400042
:10359000029006F0DCFDC1B209AA44981154449887
:1035A00025305C4901EB4000029006F0D0FDC1B22D
:1035B00007AA449811544498401C80B244904498FF
:1035C0000628D4DB0820FDF74EFDA0F57E41FE392C
:1035D00035D04FF6FE610820FDF73FFD00205290E8
:1035E0001E2051900F2050900020439008204190C1
:1035F0000020409011203F9000203E900C205299D6
:10360000FDF72BFD10205199FDF727FD142050994F
:10361000FDF723FD18204399FDF71FFD1C2041995C
:10362000FDF71BFD20204099FDF717FD24203F9951
:10363000FDF713FD28203E99FDF70FFD27E00C2034
:10364000FDF711FDC0B252901020FDF70CFDC0B285
:1036500051901420FDF707FDC0B250901820FDF7DF
:1036600002FDC0B243901C20FDF7FDFCC0B24190AA
:103670002020FDF7F8FCC0B240902420FDF7F3FCB9
:10368000C0B23F902820FDF7EEFCC0B23E9004236C
:10369000214A2021002007F06FFD02231F4A10213C
:1036A000184607F069FD04231D4A3021022007F067
:1036B00063FD03231B4A1021042007F05DFD3A221D
:1036C0004021042007F00CFC44224821042007F08C
:1036D00007FC61225021042007F002FC6D225821D2
:1036E000042007F0FDFB6F226021042007F0F8FBA7
:1036F0006E226821042007F0F3FB4FF47A7006F085
:1037000080FC07F082FB084A1021002007F0A4FC8F
:1037100041220BE000FC0008D4DF000854D8000868
:1037200054E00008D4E00008B4DB000820210020A9
:1037300007F0D6FBFF4A3021002007F08DFC022362
:10374000FD4A4021002007F017FDFC4A1021062009
:1037500007F082FC44222021062007F0C1FBF54A35
:103760003021062007F078FCF54A4021062007F0BA
:1037700073FCF44A5021062007F06EFC4FF4FA6007
:1037800006F03FFCFEE35998462802DB5998A02832
:1037900023D107F0F7FE029009F054FE00B25890D2
:1037A00008F0B4F8029009F04DFE00B25790569818
:1037B000012807D107F0E6FE029009F043FE00B2AF
:1037C00058900AE05598401CC0B2559055981E2854
:1037D00003DB01205690002055904D98012811D10F
:1037E00000204D90D8480378D8480278D848CDE9D1
:1037F00000230378D7480278D7480178D748008853
:1038000006F012FE5998462802DB5998812874D197
:10381000002044900CE0D248018848AA449822F83D
:103820001010022006F0EDFB4498401C80B244903A
:1038300044980A28EFDBBDF820014790002044900F
:103840000FE048A9449831F810104798814204DAF3
:1038500048A9449831F8100047904498401C80B221
:10386000449044980A28ECDBBDF8200146900020E3
:1038700044900FE048A9449831F8101046988142CE
:1038800004DD48A9449831F8100046904498401C43
:1038900080B2449044980A28ECDB002044900BE06E
:1038A00048A9449831F810104598084480B24590D2
:1038B0004498401C80B2449044980A28F0DB479911
:1038C000469801444598401A80B245904598C117E2
:1038D000019000EB5170C1104598C217029000EBA7
:1038E0005270C2100298A0EBC200084480B245900A
:1038F0004598C0F5805080B245905998012858D11C
:1039000007F083FA974A0021084607F0A5FB964A7C
:103910001021002007F0A0FB3A222021002007F010
:10392000DFFA2E224021002007F0DAFA8F4A5021D8
:10393000002007F091FB8E4A0021022007F08CFB4B
:103940008C4A1021022007F087FB3A222021022016
:1039500007F0C6FA2D224821022007F0C1FA2D22D5
:103960006021022007F0BCFA834A0021042007F0FE
:1039700073FB824A1021042007F06EFB3A222021BB
:10398000042007F0ADFA3A224021042007F0A8FAFB
:103990003A225821042007F0A3FA794A3021062060
:1039A00007F05AFB774A4021062007F055FB1F20FD
:1039B000599059981F287ED106F0C9FD67480088A4
:1039C0004FF47A7190FBF1F0303080B2024628213A
:1039D0000290022007F084FA604800884FF47A7160
:1039E00090FBF1F201FB1200642190FBF1F030300A
:1039F00080B2024630210290022007F071FA574847
:103A00000088642190FBF1F201FB12000A2190FB77
:103A1000F1F0303080B2024638210290022007F0E7
:103A20005FFA4E4800880A2190FBF1F201FB120078
:103A3000303080B2024640210290022007F050FA56
:103A4000454800780A2190FBF1F0303080B2024600
:103A500050210290022007F043FA3F4800780A21E3
:103A600090FBF1F201FB1200303080B20246582187
:103A70000290022007F034FA364800780A2190FBC1
:103A8000F1F0303080B2024668210290022007F047
:103A900027FA304800780A2190FBF1F201FB12006E
:103AA000303080B2024670210290022007F018FAEE
:103AB0002748007800E0D9E00A2190FBF1F030308F
:103AC00080B2024630210290042007F009FA204813
:103AD00000780A2190FBF1F201FB1200303080B235
:103AE000024638210290042007F0FAF917480078BE
:103AF0000A2190FBF1F0303080B20246482102905A
:103B0000042007F0EDF9114800780A2190FBF1F24A
:103B100001FB1200303080B2024650210290042096
:103B200007F0DEF9084800780A2190FBF1F0303008
:103B300080B229E034E1000854E10008B4DB000859
:103B4000D4D50008F4D50008380000203700002044
:103B50003600002035000020340000203200002014
:103B60003C00002074D6000874D5000814D6000864
:103B700034D6000854D6000894D50008B4D50008FF
:103B800094D60008B4D600080246602102900420B2
:103B900007F0A6F9FF4800780A2190FBF1F201FB3B
:103BA0001200303080B2024668210290042007F0F3
:103BB00097F9F9480078F94901EB40100246502185
:103BC0000290062007F048FA5898002835DD202298
:103BD0002821002007F084F94FF47A71589890FB5F
:103BE000F1F201FB1200642190FBF1F0303080B261
:103BF000024630210290002007F072F964215898A3
:103C000090FBF1F201FB12000A2190FBF1F0303041
:103C100080B2024638210290002007F061F90A21A3
:103C2000589890FBF1F201FB1200303080B202464E
:103C300048210290002007F053F9D9480078A8B134
:103C4000D7480078012804D10020D5490870022007
:103C50005990D3480078042808D10020D049087032
:103C60003D2059900120039007F0CFF85998022881
:103C70003AD107F0CAF8CB4A0021084607F0ECF920
:103C8000C94A1021002007F0E7F9C84A2021002086
:103C900007F0E2F93A223021002007F021F9C44A66
:103CA0000021022007F0D8F9C24A1021022007F0B3
:103CB000D3F9C04A2021022007F0CEF9BE4A3021B4
:103CC000022007F0C9F93A224021022007F008F942
:103CD0002E226021022007F003F9B84A7021022049
:103CE00007F0BAF920205990599820287ED14FF436
:103CF0007A71459890FBF1F0303080B2024648214D
:103D00000290002007F0ECF84FF47A71459890FB90
:103D1000F1F201FB1200642190FBF1F0303080B22F
:103D2000024650210290002007F0DAF864214598FD
:103D300090FBF1F201FB12000A2190FBF1F0303010
:103D400080B2024658210290002007F0C9F80A21EB
:103D5000459890FBF1F201FB1200303080B2024630
:103D600060210290002007F0BBF807F0CFFD029021
:103D700009F068FB00B257905798002835DD2022E3
:103D80004821022007F0ACF84FF47A71579890FB65
:103D9000F1F201FB1200642190FBF1F0303080B2AF
:103DA000024650210290022007F09AF864215798A9
:103DB00090FBF1F201FB12000A2190FBF1F0303090
:103DC00080B2024658210290022007F089F80A21A9
:103DD000579890FBF1F201FB1200303080B202469E
:103DE00068210290022007F07BF800E018E06C48A0
:103DF0000078A8B16A480078012804D100206849F9
:103E000008700120599066480078042808D10020E5
:103E1000634908703D2059900120039006F0F5FF9A
:103E200059983D287ED1039801287CD10020039029
:103E3000634A0021084607F00FF9412210210020B3
:103E400007F04EF85F4A2021002007F005F95E4A8E
:103E50003021002007F000F95C4A4021002007F0E3
:103E6000FBF802235A4A5021002007F085F9544AF2
:103E70000021022007F0F0F842221021022007F072
:103E80002FF8504A2021022007F0E6F80223504A7A
:103E90003021184607F070F94E4A5021022007F0F1
:103EA000DBF831226021022007F01AF8444A002191
:103EB000042007F0D1F843221021042007F010F865
:103EC000404A2021042007F0C7F80223404A30214D
:103ED000042007F051F9404A5021042007F0BCF8B3
:103EE00031226021042006F0FBFF354A0021062024
:103EF00007F0B2F844221021062006F0F1FF314A03
:103F00002021062007F0A8F8344A3021062007F0C7
:103F1000A3F8334A4021062007F09EF8314A502189
:103F2000062001E09DE10CE007F096F82E4A6021A2
:103F3000062007F091F840F2DC5006F062F806F037
:103F400064FF284A3021002007F086F8264A4021E5
:103F5000002007F081F8549804287EDA549801284C
:103F60004FD131220021022007F005F82E2208212E
:103F7000022007F000F80F4A1021022007F0B3F8E2
:103F80000D4A00E0FEE32021022007F0ACF8174ABA
:103F900030212DE03800002039000020D4D6000860
:103FA0003A000020B4D70008D4D70008F4D700089E
:103FB00094DB000874D6000874D5000814D60008F5
:103FC000B4DB000834E1000834DE000894E10008A6
:103FD000B4E10008F4E1000814E2000834E200084B
:103FE000F4DE0008D4D50008F4D5000814D8000881
:103FF000022007F078F8FF4A4021022007F073F80A
:104000001DE031220021022006F06AFF2E22082145
:10401000022006F065FFF84A1021022007F01CF884
:10402000F64A2021022007F017F8F54A3021022035
:1040300007F012F8EF4A4021022007F00DF85498DB
:10404000022820D132220021042006F094FF2E22E3
:104050000821042006F08FFF00E056E0E94A102115
:10406000042007F040F8E84A2021042007F03BF83C
:10407000E64A3021042007F036F8E54A40210420C2
:1040800007F031F81DE032220021042006F028FF5D
:104090002E220821042006F023FFDA4A10210420F2
:1040A00006F0DAFFD84A2021042006F0D5FFD74ACF
:1040B0003021042006F0D0FFD54A4021042006F02C
:1040C000CBFF5498032810D133220021062006F09C
:1040D00052FF2E220821062006F04DFF0423CD4A70
:1040E0001021062007F0AFF80FE033220021062050
:1040F00006F0F6FE2E220821062006F0F1FE04232B
:10410000C44A1021062007F037F8549803286DDDC3
:10411000549807286ADA5498042810D134220021D0
:10412000022006F028FF2E220821022006F023FF9D
:104130000423B94A1021022007F085F80FE0342249
:104140000021022006F0CCFE2E220821022006F0DB
:10415000C7FE0423B04A1021022007F00DF854983E
:10416000052810D135220021042006F004FF2E225C
:104170000821042006F0FFFE0423A84A1021184657
:1041800007F061F80FE035220021042006F0A8FEB8
:104190002E220821042006F0A3FE04239F4A1021AA
:1041A000184606F0E9FF549806280FD13622002160
:1041B00006F0E1FE2E220821062006F0DCFE042394
:1041C000974A1021062007F03EF80FE03622002122
:1041D000062006F085FE2E220821062006F080FE2D
:1041E00004238F4A1021062006F0C6FF8D48007870
:1041F000B8B38C48007801280AD10020894908709A
:1042000054984630C0B259900120539006F0FDFDFD
:104210008448007802280BD1002082490870549805
:10422000012801DC072054905498401EC0B25490DD
:104230007C48007803280BD100207A4908705498F4
:10424000401CC0B254905498062801DD01205490BF
:1042500074480078042804D10020724908700120B5
:1042600059905998472871D1634A1021002006F0CF
:10427000F3FE624A2021002006F0EEFE604A302163
:10428000002006F0E9FE5B4A4021002006F0E4FE33
:104290005E4A5021002006F0DFFE5D4A60210020CA
:1042A00006F0DAFE529801287ED1539804287CDA71
:1042B0005398012814D131220021022006F05BFE20
:1042C0002E220821022006F056FE574A1021022015
:1042D00006F009FF554A2021022006F004FF13E0F2
:1042E00031220021022006F0FBFD2E2208210220AF
:1042F00006F0F6FD4C4A1021022006F0ADFE4B4AB6
:104300002021022006F0A8FE539802281FD1322255
:104310000021042006F02FFE2E220821042006F0A2
:104320002AFE354A1021042006F0DDFE334A202102
:10433000042006F0D8FE3E4A3021042006F0D3FEC9
:104340003C4A4021042006F0CEFE1EE0DBE0322293
:104350000021042006F0C4FD2E220821042006F0CE
:10436000BFFD254A1021042006F076FE234A2021B5
:10437000042006F071FE2E4A3021042006F06CFE67
:104380002C4A4021042006F067FE5398032821D1CF
:1043900033220021062006F0EEFD2E220821062001
:1043A00006F0E9FD144A01E058E06BE01021062018
:1043B00006F099FE114A2021062006F094FE1E4ABE
:1043C0003021062006F08FFE1A4A4021062006F012
:1043D0008AFE57E033220021062006F081FD2E22BE
:1043E0000821062006F07CFD034A1021062006F075
:1043F00033FE23E034D8000874D6000874D50008D2
:1044000014D8000894D50008B4D50008D4D5000805
:10441000F4D5000854D80008D4D8000854D90008AE
:10442000D4D900083A00002054DA000874DA0008F1
:1044300094DA0008B4DA0008D4DA0008FF4A202130
:10444000062006F009FEFE4A3021062006F004FE92
:10445000FC4A4021062006F0FFFD13E03122002136
:10446000022006F088FD2E220821022006F083FD9E
:10447000F54A1021022006F036FEF44A20210220DF
:1044800006F031FEF2480078E8B3F14800780128E0
:1044900010D10020EE4908705298012806D1539897
:1044A0006430C0B2599006F0B0FC03E0652059902A
:1044B00006F0ABFCE648007802280BD10020E44966
:1044C00008705398012801DC042053905398401E33
:1044D000C0B25390DE48007803280BD10020DC499D
:1044E00008705398401CC0B253905398032801DDC4
:1044F00001205390D6480078042804D10020D449E4
:10450000087001205990599865286BD1CE4A202116
:10451000002006F0A1FDCD4A3021002006F09CFDD0
:10452000CC4A4021002006F097FDCB4A50210020C4
:1045300006F092FD529801280AD1C84A3021042081
:1045400006F0D1FDC64A4021042006F0CCFD09E06A
:10455000C44A3021042006F0C6FDC34A402104208D
:1045600006F0C1FDBA480078E0B3B94800780128E8
:104570000CD10020B649087054984630C0B259900A
:104580000C205299FCF769FD06F03FFCB04800781A
:1045900002280AD10020AE490870529808B90220BA
:1045A00052905298401EC0B25290A94800780328F9
:1045B0000BD10020A64908705298401CC0B25290FE
:1045C0005298012801DD00205290A148007804286B
:1045D00008D100209E4908700C205299FCF73DFD3F
:1045E00001205990599866287ED1A04A10210020B8
:1045F00006F032FD914A2021002006F02DFD9C4A54
:104600003021002006F028FD8E4A4021002006F0CF
:1046100023FD904A5021002006F01EFD8E4A6021A5
:10462000002006F019FD0A21519890FBF1F030307E
:1046300080B2024638210290042006F09CFC0A2138
:10464000519890FBF1F201FB1200303080B202462B
:1046500040210290042006F08EFC864A4821042066
:1046600006F041FD7A480078F0B3794800780128D7
:104670000CD100207649087054984630C0B2599049
:1046800010205199FCF7E9FC06F0BFFB7048007858
:104690000C2830D100206E49087024E0519808B9E8
:1046A000242051905198401EC0B251900A21519837
:1046B00090FBF1F0303080B20246382102900420A5
:1046C00006F059FC0A21519890FBF1F201FB12000F
:1046D000303080B2024640210290042006F04BFCAC
:1046E0003C2005F08EFC00E067E002216248FBF709
:1046F000F4FF0028D2D05648007802280AD10020C2
:1047000053490870519808B9242051905198401E7F
:10471000C0B251904E4800780D282FD100204C494E
:10472000087025E05198401CC0B251905198232840
:1047300001DD002051900A21519890FBF1F03030BA
:1047400080B2024638210290042006F014FC0A21AF
:10475000519890FBF1F201FB1200303080B202461A
:1047600040210290042006F006FC3C2005F049FCA4
:1047700004214148FBF7B1FF0028D3D0344800782A
:10478000032800E0FEE30BD1002031490870519866
:10479000401CC0B251905198232801DD0020519057
:1047A0002B480078042808D10020294908701020DF
:1047B0005199FCF752FC012059905998672879D1FA
:1047C0002A4A1021002006F047FC1C4A2021002024
:1047D00006F042FC1A4A3021002006F03DFC194A3E
:1047E0004021002006F038FC1A4A5021002006F033
:1047F00033FC194A6021002006F02EFC0A21509853
:1048000090FBF1F0303080B2024638210290042053
:1048100006F0B1FB0A21509890FBF1F201FB120067
:10482000303080B2024640210290042006F0A3FB03
:10483000104A4821042006F056FC1FE074D50008F9
:10484000D4DA0008B4DA000854DA000874DA000890
:104850003A000020D4D50008F4D50008F4DA0008A6
:1048600014DB000834DB000854DB000874D60008B1
:1048700094DA000814D6000800080140FF480078C8
:10488000C0B1FE48007801280CD10020FB49087017
:1048900054984630C0B2599006F0B7FA1420509997
:1048A000FCF7DBFBF54800780C282FD10020F349FA
:1048B000087025E08AE0509808B92420509050985C
:1048C000401EC0B250900A21509890FBF1F0303059
:1048D00080B2024638210290042006F04CFB0A21E7
:1048E000509890FBF1F201FB1200303080B202468A
:1048F00040210290042006F03EFB3C2005F081FBA5
:104900000221DF48FBF7E9FE0028D4D0DB4800781D
:1049100002280AD10020D9490870509808B92420EB
:1049200050905098401EC0B25090D44800780D2846
:104930002FD10020D149087025E05098401CC0B20A
:1049400050905098232801DD002050900A21509863
:1049500090FBF1F0303080B2024638210290042002
:1049600006F009FB0A21509890FBF1F201FB1200BE
:10497000303080B2024640210290042006F0FBFA5B
:104980003C2005F03EFB0421BD48FBF7A6FE0028B5
:10499000D3D0BA48007803280BD10020B74908705B
:1049A0005098401CC0B250905098232801DD002040
:1049B0005090B2480078042808D10020AF49087010
:1049C0000120599014205099FCF747FB599848282A
:1049D0007DD1AC4A2021002006F03EFBAA4A3021BE
:1049E000002006F039FBA94A4021002006F034FBE4
:1049F000A74A5021002006F02FFB5398042857DACD
:104A00005398012814D131220021022006F0B3FA74
:104A10002E220821022006F0AEFA9E4A1021022022
:104A200006F061FB9C4A2021022006F05CFB13E0AB
:104A300031220021022006F053FA2E220821022002
:104A400006F04EFA934A1021022006F005FB924A26
:104A50002021022006F000FB5398022814D13222B4
:104A60000021042006F087FA2E220821042006F0F7
:104A700082FA844A1021042006F035FB874A20215F
:104A8000042006F030FB13E032220021042006F05F
:104A900027FA2E220821042006F022FA794A102152
:104AA000042006F0D9FA7D4A2021042006F0D4FA29
:104AB0007248007858B17148007801280AD1002066
:104AC0006E49087053986E30C0B2599000E02AE0E9
:104AD00006F09BF96948007802280BD1002067494D
:104AE00008705398012801DC032053905398401E0E
:104AF000C0B253906148007803280BD100205F4971
:104B000008705398401CC0B253905398022801DD9E
:104B10000120539059480078042804D100205749B7
:104B200008700120599059986F287DD1594A202149
:104B3000002006F091FA584A3021002006F08CFA45
:104B4000524A4021002006F087FA514A50210020A5
:104B500006F082FA4E98012867D1514800884FF438
:104B60007A7190FBF1F0303080B202461821029049
:104B7000042006F000FA4A4800884FF47A7190FB4E
:104B8000F1F201FB1200642190FBF1F0303080B2B1
:104B9000024620210290042006F0EDF940480088EA
:104BA000642190FBF1F201FB12000A2190FBF1F06D
:104BB000303080B2024628210290042006F0DBF952
:104BC000374800880A2190FBF1F201FB12003030D7
:104BD00080B2024630210290042006F0CCF92D224A
:104BE0003821042006F07CF92E4800780A2190FB39
:104BF000F1F0303080B2024640210290042006F0ED
:104C00006FF9284800780A2190FBF1F201FB1200AD
:104C1000303080B2024648210290042006F060F94C
:104C20002D225021042001E08BE11DE006F058F90F
:104C30001D4800780A2190FBF1F0303080B2024626
:104C400058210290042006F04BF9174800780A21F9
:104C500090FBF1F201FB1200303080B2024660217D
:104C60000290042006F03CF94E9802287ED10C48B0
:104C700000884FF47A7190FBF1F017E03A000020C1
:104C80000008014094D50008B4D50008D4D5000828
:104C9000F4D5000834D6000854D6000874DB0008A8
:104CA000320000203400002035000020303080B277
:104CB000024618210290042006F012F9F9480088F3
:104CC0004FF47A7190FBF1F201FB1200642190FB2A
:104CD000F1F0303080B2024620210290042006F02C
:104CE000FFF8F0480088642190FBF1F201FB12000C
:104CF0000A2190FBF1F0303080B202462821029068
:104D0000042006F0EDF8E74800880A2190FBF1F254
:104D100001FB1200303080B20246302102900420A4
:104D200006F0DEF82D223821042006F0D9F8DE48FE
:104D300000780A2190FBF1F0303080B20246402129
:104D40000290042006F017F9D74800780A2190FB5A
:104D5000F1F201FB1200303080B20246482102908D
:104D6000042006F008F92D22502100E01EE0042066
:104D700006F0B6F8CD4800780A2190FBF1F030300B
:104D800080B2024658210290042006F0A9F8C748D4
:104D900000780A2190FBF1F201FB1200303080B262
:104DA000024660210290042006F09AF84E980328EB
:104DB0007ED1BC4800884FF47A7190FBF1F030301E
:104DC00080B2024618210290042006F089F8B54806
:104DD00000884FF47A7190FBF1F201FB120064211C
:104DE00090FBF1F0303080B2024620210290042086
:104DF00006F076F8AB480088642190FBF1F201FBE5
:104E000012000A2190FBF1F0303080B202462821D6
:104E10000290042006F064F8A24800880A2190FB62
:104E2000F1F201FB1200303080B2024630210290D4
:104E3000042006F055F82D223821042006F050F801
:104E4000994800780A2190FBF1F0303080B2024698
:104E500040210290042006F043F8934800780A218C
:104E600090FBF1F201FB1200303080B20246482183
:104E70000290042006F034F82D225021042006F080
:104E80002FF88A4800780A2190FBF1F0303080B288
:104E9000024658210290042006F06DF883480078FD
:104EA0000A2190FBF1F201FB1200303080B200E0E9
:104EB00005E0024660210290042006F05CF87C4880
:104EC0000078F0B37A480078012813D1002078499F
:104ED00008704E98032804DA4E98401CC0B24E90D9
:104EE00008E054984630C0B2599005F08EFF01207A
:104EF0004E904D906E4800780C287ED100206C4971
:104F00000870B9E04E98012804D0022858D0032830
:104F100074D181E06348008840F2B271884203DCBA
:104F200040F634005F4908805E480088401E5D49B5
:104F30000880084600884FF47A7190FBF1F0303019
:104F400000E0EFE180B2024618210290042006F052
:104F500012F8544800884FF47A7190FBF1F201FB8B
:104F60001200642190FBF1F0303080B20246202123
:104F70000290042005F0FFFF4A480088642190FB5E
:104F8000F1F200E0F8E301FB12000A2190FBF1F0DE
:104F9000303080B2024628210290042005F0EBFF59
:104FA000404800880A2190FBF1F201FB12003030EA
:104FB00080B2024630210290042005F0DCFF57E069
:104FC00039480078012802DC0D203749087036483E
:104FD0000078401E34490870084600780A2190FB8A
:104FE000F1F0303080B2024640210290042005F0FA
:104FF000C2FF2D4800780A2101E044E035E090FB33
:10500000F1F201FB1200303080B2024648210290DA
:10501000042005F0B0FF2BE024480078012802DCD2
:1050200020202249087021480078401E1F4908703E
:10503000084600780A2190FBF1F0303080B2024639
:1050400058210290042005F096FF184800780A21A4
:1050500090FBF1F201FB1200303080B20246602179
:105060000290042005F087FF02E001204E9000BF6F
:1050700000BF3C2004F0C5FF02210E48FBF72DFBCA
:1050800000283FF43FAF0A480078022842D10020B0
:10509000074908704E9801280ED002281CD003281A
:1050A00034D126E0320000203400002035000020FA
:1050B0003A00002000080140FF48008840F2B27129
:1050C000884203DC40F63400FB490880FA48008837
:1050D000401EF94908801CE0F8480078012802DCED
:1050E0000D20F6490870F5480078401EF349087015
:1050F0000FE0F3480078012802DC2020F049087016
:10510000EF480078401EEE49087002E001204E9002
:1051100000BF00BFEB4800780D287ED10020E94990
:105120000870B3E04E98012804D0022854D0032818
:1051300074D17CE0E0480088401CDF4908800846C4
:10514000008840F63301884203DD40F2B270DA494C
:105150000880D94800884FF47A7190FBF1F0303024
:1051600080B2024618210290042005F004FFD248C4
:1051700000884FF47A7190FBF1F201FB1200642178
:1051800090FBF1F0303080B20246202102900420E2
:1051900005F0F1FEC8480088642190FBF1F201FBA4
:1051A00012000A2190FBF1F0303080B20246282133
:1051B0000290042005F0DFFEBF4800880A2190FB22
:1051C000F1F201FB1200303080B202463021029031
:1051D000042005F0D0FE55E0B8480078401CB749DF
:1051E0000870084600780C2801DD01200870B348DB
:1051F00000780A2190FBF1F0303080B20246402165
:105200000290042005F0B7FEAC4800780A2190FB1C
:10521000F1F201FB1200303001E03EE02FE080B2FD
:10522000024648210290042005F0A5FE2AE0A44889
:105230000078401CA2490870084600781F2801DD4C
:10524000012008709E4800780A2190FBF1F0303070
:1052500080B2024658210290042005F08CFE984846
:1052600000780A2190FBF1F201FB1200303080B28D
:10527000024660210290042005F07DFE02E001203C
:105280004E9000BF00BF3C2004F0BBFE04218E48BE
:10529000FBF723FA00283FF445AF8A48007803283B
:1052A00036D10020874908704E98012804D0022882
:1052B00012D0032828D11BE07F480088401C7E497B
:1052C00008800846008840F63301884203DD40F23A
:1052D000B270794908801AE078480078401C774914
:1052E0000870084600780C2801DD012008700EE0E7
:1052F00073480078401C72490870084600781F28DF
:1053000001DD0120087002E001204E9000BF00BFC7
:105310006C480078042805D100206A4908700120F3
:1053200059904D90599870287ED1684A20210020CC
:1053300005F092FE664A3021002005F08DFE654A98
:105340004021002005F088FE634A5021002005F02E
:1053500083FE4E9801283CD1604800780A2190FBDA
:10536000F1F0303080B2024620210290042005F096
:1053700002FE5A4800780A2190FBF1F201FB12006C
:10538000303080B2024628210290042005F0F3FD5F
:105390003A223021042005F0A3FD514800780A216B
:1053A00090FBF1F0303080B20246382102900420A8
:1053B00005F096FD4A4800780A2190FBF1F201FBC6
:1053C0001200303080B2024640210290042005F0E5
:1053D00087FD4E9802283ED1404800780A2190FB74
:1053E000F1F0303080B2024620210290042005F016
:1053F00077FD3A4800780A2190FBF1F201FB120098
:10540000303080B2024628210290042005F068FD69
:105410003A223021042005F063FD314800780A214A
:1054200090FBF1F0303000E072E080B202463821AB
:105430000290042005F09FFD294800780A2190FB86
:10544000F1F201FB1200303080B20246402102909E
:10545000042005F090FD3A224821042005F040FD8B
:10546000204800780A2190FBF1F0303080B20246EB
:1054700050210290042005F033FD1A4800780A21DB
:1054800090FBF1F201FB1200303080B2024658214D
:105490000290042005F024FD0A480078C0B30948B2
:1054A000007801282CD10020064908704E98022867
:1054B0001DDA4E98401C17E0320000203400002016
:1054C000350000203A0000200008014094D5000873
:1054D00074DB0008D4D50008F4D50008360000209D
:1054E0003700002038000020C0B24E9008E05498E9
:1054F0004630C0B2599005F088FC01204E904D9086
:10550000FF4800780C287BD10020FD49087080E01E
:1055100078E14E98012802D0022873D128E0F9489A
:105520000078002802DC1820F6490870F548007859
:10553000401EF4490870084600780A2190FBF1F0FB
:10554000303080B2024620210290042005F013FD85
:10555000EC4800780A2190FBF1F201FB1200303098
:1055600080B2024628210290042005F004FD4CE0A0
:10557000E5480078002802DC3C20E3490870E24856
:105580000078401EE04908700020E0490870DE48BD
:1055900000780A2190FBF1F0303080B202463821C9
:1055A0000290042005F0E7FCD74800780A2190FB20
:1055B000F1F201FB1200303080B20246402102902D
:1055C000042005F0D8FCD14800780A2190FBF1F0C6
:1055D000303080B2024650210290042005F080FC59
:1055E000CA4800780A2190FBF1F201FB120030302A
:1055F00080B2024658210290042005F071FC04E0BC
:105600000EE0FFE701204E9000BF00BF3C2004F0F9
:10561000F8FC0221BE48FBF760F800283FF479AFA0
:10562000B7480078022829D10020B54908704E9863
:10563000012802D002281DD10CE0B24800780028D1
:1056400002DC1820AF490870AE480078401EAD4912
:10565000087012E0AC480078002802DC3C20AA491F
:105660000870A9480078401EA74908700020A74983
:10567000087002E001204E9000BF00BFA0480078F3
:105680000D2878D100209E4908707EE04E980128B0
:1056900002D0022872D127E09A480078401C99492C
:1056A000087008460078172801DD0020087095482A
:1056B00000780A2190FBF1F0303080B202462021C0
:1056C0000290042005F057FC8E4800780A2190FBD8
:1056D000F1F201FB1200303080B202462821029024
:1056E000042005F048FC4CE087480078401C8649BF
:1056F0000870084600783B2801DD00200870002073
:1057000082490870804800780A2190FBF1F030301F
:1057100080B2024638210290042005F02CFC7A4821
:1057200000780A2190FBF1F201FB1200303080B2C8
:10573000024640210290042005F01DFC73480078C9
:105740000A2190FBF1F0303080B2024650210290E5
:10575000042005F0C5FB6D4800780A2190FBF1F2AA
:1057600001FB1200303080B2024658210290042022
:1057700005F0B6FB05E00FE0F0E3FFE701204E90F7
:1057800000BF00BF3C2004F03CFC04216048FAF755
:10579000A4FF00283FF47AAF59480078032827D1A6
:1057A0000020574908704E98012802D002281BD1CA
:1057B0000BE054480078401C5249087008460078B5
:1057C000172801DD0020087011E04F480078401CC8
:1057D0004D490870084600783B2801DD002008701C
:1057E00000204A49087002E001204E9000BF00BF2F
:1057F00043480078042805D1002041490870012061
:1058000059904D905998492879D10423414A102143
:10581000002005F0B1FC404A5021002005F01CFC9E
:105820003E4A6021002005F017FC439898B93122C8
:105830000021022005F09FFB2E220821022005F006
:105840009AFB374A1021022005F04DFC354A2021F1
:10585000022005F048FC439801286FD15398012895
:1058600014D131220021022005F085FB2E220821CF
:10587000022005F080FB2A4A1021022005F033FCAB
:10588000284A2021022005F02EFC13E031220021BD
:10589000022005F025FB2E220821022005F020FB26
:1058A0001F4A1021022005F0D7FB1E4A20210220AA
:1058B00005F0D2FB539802284ED132220021042059
:1058C00005F059FB2E220821042005F054FB164A4E
:1058D0001021042005F007FC144A2021042005F0C3
:1058E00002FC134A3021042005F0FDFB114A40213F
:1058F000042005F0F8FB104A502104201FE071E15C
:105900003A00002036000020370000203800002038
:105910000008014054D80008D4D50008F4D5000888
:1059200054DA000874DA000874DC000894DC00081B
:10593000B4DC0008B4D5000834DD000897E005F0B9
:10594000D2FBFF4A6021042005F0CDFBFD4A702107
:10595000042005F0C8FB2CE032220021042005F0D1
:10596000BFFA2E220821042005F0BAFAF64A1021C7
:10597000042005F071FBF54A2021042005F06CFBA2
:10598000F34A3021042005F067FBF24A402104204D
:1059900005F062FBF04A5021042005F05DFBE84A67
:1059A0006021042005F058FBE64A7021042005F030
:1059B00053FB539803282DD133220021062005F0F4
:1059C000DAFA2E220821062005F0D5FAE34A102142
:1059D000062005F088FBE24A2021062005F083FB23
:1059E000DB4A3021062005F07EFBDA4A4021062002
:1059F00005F079FBD84A5021062005F074FBD04A07
:105A00006021062005F06FFBCE4A7021062005F0CC
:105A10006AFB2CE033220021062005F061FA2E22D9
:105A20000821062005F05CFACC4A1021062005F07A
:105A300013FBCB4A2021062005F00EFBC44A30217F
:105A4000062005F009FBC34A4021062005F004FBAF
:105A5000C14A5021062005F0FFFAB94A602106200C
:105A600005F0FAFAB74A7021062005F0F5FA4398D6
:105A7000022875D15398012814D131220021022027
:105A800005F079FA2E220821022005F074FAB54AB1
:105A90001021022005F027FBB34A2021022005F047
:105AA00022FB13E031220021022005F019FA2E22F8
:105AB0000821022005F014FAAA4A1021022005F05C
:105AC000CBFAA94A2021022005F0C6FA53980228F1
:105AD00023D132220021042005F04DFA2E22082184
